{
  "contractName": "Dai",
  "abi": [
    {
      "constant": true,
      "inputs": [
        {
          "name": "",
          "type": "address"
        }
      ],
      "name": "balanceOf",
      "outputs": [
        {
          "name": "",
          "type": "uint256"
        }
      ],
      "payable": false,
      "stateMutability": "view",
      "type": "function"
    },
    {
      "anonymous": false,
      "inputs": [
        {
          "indexed": true,
          "name": "src",
          "type": "address"
        },
        {
          "indexed": true,
          "name": "dst",
          "type": "address"
        },
        {
          "indexed": false,
          "name": "wad",
          "type": "uint256"
        }
      ],
      "name": "Transfer",
      "type": "event"
    },
    {
      "constant": false,
      "inputs": [
        {
          "name": "dst",
          "type": "address"
        },
        {
          "name": "wad",
          "type": "uint256"
        }
      ],
      "name": "transfer",
      "outputs": [
        {
          "name": "",
          "type": "bool"
        }
      ],
      "payable": false,
      "stateMutability": "nonpayable",
      "type": "function"
    },
    {
      "constant": false,
      "inputs": [
        {
          "name": "src",
          "type": "address"
        },
        {
          "name": "dst",
          "type": "address"
        },
        {
          "name": "wad",
          "type": "uint256"
        }
      ],
      "name": "transferFrom",
      "outputs": [
        {
          "name": "",
          "type": "bool"
        }
      ],
      "payable": false,
      "stateMutability": "nonpayable",
      "type": "function"
    }
  ],
  "bytecode": "0x608060405234801561001057600080fd5b506103a1806100206000396000f3fe608060405234801561001057600080fd5b50600436106100415760003560e01c806323b872dd1461004657806370a08231146100cc578063a9059cbb14610124575b600080fd5b6100b26004803603606081101561005c57600080fd5b81019080803573ffffffffffffffffffffffffffffffffffffffff169060200190929190803573ffffffffffffffffffffffffffffffffffffffff1690602001909291908035906020019092919050505061018a565b604051808215151515815260200191505060405180910390f35b61010e600480360360208110156100e257600080fd5b81019080803573ffffffffffffffffffffffffffffffffffffffff169060200190929190505050610314565b6040518082815260200191505060405180910390f35b6101706004803603604081101561013a57600080fd5b81019080803573ffffffffffffffffffffffffffffffffffffffff1690602001909291908035906020019092919050505061032c565b604051808215151515815260200191505060405180910390f35b60006101d5600160008673ffffffffffffffffffffffffffffffffffffffff1673ffffffffffffffffffffffffffffffffffffffff1681526020019081526020016000205483610341565b600160008673ffffffffffffffffffffffffffffffffffffffff1673ffffffffffffffffffffffffffffffffffffffff16815260200190815260200160002081905550610261600160008573ffffffffffffffffffffffffffffffffffffffff1673ffffffffffffffffffffffffffffffffffffffff168152602001908152602001600020548361035b565b600160008573ffffffffffffffffffffffffffffffffffffffff1673ffffffffffffffffffffffffffffffffffffffff168152602001908152602001600020819055508273ffffffffffffffffffffffffffffffffffffffff168473ffffffffffffffffffffffffffffffffffffffff167fddf252ad1be2c89b69c2b068fc378daa952ba7f163c4a11628f55a4df523b3ef846040518082815260200191505060405180910390a3600190509392505050565b60016020528060005260406000206000915090505481565b600061033933848461018a565b905092915050565b600082828403915081111561035557600080fd5b92915050565b600082828401915081101561036f57600080fd5b9291505056fea165627a7a7230582076606a1088454ac0b73d46d1e58f37171c73d980d72322f2cc9ea456c33637230029",
  "source": "pragma solidity 0.5.8;\n\ncontract Dai {\n    \n    // -- ERC20 --\n    string private constant name = \"Dai\";\n    string private constant symbol = \"DAI\";\n    string private constant version = \"1\";\n    uint8 private constant decimals = 18;\n    uint256 private totalSupply;\n    mapping (address => uint) public balanceOf;\n    event Transfer(address indexed src, address indexed dst, uint wad);\n\n    // -- Math --\n    \n    function add(uint x, uint y) internal pure returns (uint z) {\n        require((z = x + y) >= x);\n    }\n\n    function sub(uint x, uint y) internal pure returns (uint z) {\n        require((z = x - y) <= x);\n    }\n\n    function transfer(address dst, uint wad) external returns (bool) {\n        return transferFrom(msg.sender, dst, wad);\n    }\n\n    function transferFrom(address src, address dst, uint wad) public returns (bool) {\n        // require\n        balanceOf[src] = sub(balanceOf[src], wad);\n        balanceOf[dst] = add(balanceOf[dst], wad);\n        emit Transfer(src, dst, wad);\n        return true;\n    }\n}",
  "sourcePath": "/Users/skoike/Dev/19_substrate_monitoring/ethereum-contract/contracts/Dai.sol",
  "compiler": {
    "name": "solc",
    "version": "0.5.8+commit.23d335f2.Emscripten.clang"
  },
  "schemaVersion": "3.0.16",
  "updatedAt": "2019-10-20T04:43:16.133Z",
  "devdoc": {
    "methods": {}
  },
  "userdoc": {
    "methods": {}
  }
}